{
  "contractName": "Lottery",
  "abi": [
    {
      "inputs": [
        {
          "internalType": "contract IERC20",
          "name": "_token",
          "type": "address"
        }
      ],
      "stateMutability": "nonpayable",
      "type": "constructor"
    },
    {
      "anonymous": false,
      "inputs": [
        {
          "indexed": false,
          "internalType": "address",
          "name": "_from",
          "type": "address"
        },
        {
          "indexed": false,
          "internalType": "address",
          "name": "_destAddr",
          "type": "address"
        },
        {
          "indexed": false,
          "internalType": "uint256",
          "name": "_amount",
          "type": "uint256"
        }
      ],
      "name": "Transfer",
      "type": "event"
    },
    {
      "inputs": [],
      "name": "owner",
      "outputs": [
        {
          "internalType": "address",
          "name": "",
          "type": "address"
        }
      ],
      "stateMutability": "view",
      "type": "function"
    },
    {
      "inputs": [
        {
          "internalType": "uint256",
          "name": "",
          "type": "uint256"
        }
      ],
      "name": "players",
      "outputs": [
        {
          "internalType": "address payable",
          "name": "",
          "type": "address"
        }
      ],
      "stateMutability": "view",
      "type": "function"
    },
    {
      "inputs": [],
      "name": "token",
      "outputs": [
        {
          "internalType": "contract IERC20",
          "name": "",
          "type": "address"
        }
      ],
      "stateMutability": "view",
      "type": "function"
    },
    {
      "inputs": [
        {
          "internalType": "uint256",
          "name": "amount",
          "type": "uint256"
        }
      ],
      "name": "acceptToken",
      "outputs": [],
      "stateMutability": "nonpayable",
      "type": "function"
    },
    {
      "inputs": [
        {
          "internalType": "address",
          "name": "addr",
          "type": "address"
        }
      ],
      "name": "getTokenBalanceOf",
      "outputs": [
        {
          "internalType": "uint256",
          "name": "",
          "type": "uint256"
        }
      ],
      "stateMutability": "view",
      "type": "function"
    },
    {
      "inputs": [],
      "name": "getBalance",
      "outputs": [
        {
          "internalType": "uint256",
          "name": "",
          "type": "uint256"
        }
      ],
      "stateMutability": "view",
      "type": "function"
    },
    {
      "inputs": [],
      "name": "pickWinner",
      "outputs": [],
      "stateMutability": "nonpayable",
      "type": "function"
    }
  ],
  "bytecode": "0x60806040523480156200001157600080fd5b50604051620011933803806200119383398181016040528101906200003791906200013d565b806000806101000a81548173ffffffffffffffffffffffffffffffffffffffff021916908373ffffffffffffffffffffffffffffffffffffffff16021790555033600260006101000a81548173ffffffffffffffffffffffffffffffffffffffff021916908373ffffffffffffffffffffffffffffffffffffffff160217905550506200016f565b600080fd5b600073ffffffffffffffffffffffffffffffffffffffff82169050919050565b6000620000f182620000c4565b9050919050565b60006200010582620000e4565b9050919050565b6200011781620000f8565b81146200012357600080fd5b50565b60008151905062000137816200010c565b92915050565b600060208284031215620001565762000155620000bf565b5b6000620001668482850162000126565b91505092915050565b611014806200017f6000396000f3fe608060405234801561001057600080fd5b506004361061007d5760003560e01c80638da5cb5b1161005b5780638da5cb5b146100da578063aa3907ea146100f8578063f71d96cb14610114578063fc0c546a146101445761007d565b806312065fe0146100825780635d495aea146100a057806383894548146100aa575b600080fd5b61008a610162565b6040516100979190610958565b60405180910390f35b6100a86101fa565b005b6100c460048036038101906100bf91906109d6565b6104e3565b6040516100d19190610958565b60405180910390f35b6100e2610587565b6040516100ef9190610a12565b60405180910390f35b610112600480360381019061010d9190610a59565b6105ad565b005b61012e60048036038101906101299190610a59565b610799565b60405161013b9190610aa7565b60405180910390f35b61014c6107d8565b6040516101599190610b21565b60405180910390f35b60003373ffffffffffffffffffffffffffffffffffffffff16600260009054906101000a900473ffffffffffffffffffffffffffffffffffffffff1673ffffffffffffffffffffffffffffffffffffffff16146101f4576040517f08c379a00000000000000000000000000000000000000000000000000000000081526004016101eb90610b99565b60405180910390fd5b47905090565b3373ffffffffffffffffffffffffffffffffffffffff16600260009054906101000a900473ffffffffffffffffffffffffffffffffffffffff1673ffffffffffffffffffffffffffffffffffffffff161461028a576040517f08c379a000000000000000000000000000000000000000000000000000000000815260040161028190610b99565b60405180910390fd5b600360018054905010156102d3576040517f08c379a00000000000000000000000000000000000000000000000000000000081526004016102ca90610c2b565b60405180910390fd5b6000600180805490506102e46107fc565b6102ee9190610c7a565b815481106102ff576102fe610cab565b5b9060005260206000200160009054906101000a900473ffffffffffffffffffffffffffffffffffffffff16905060006064604661033b306104e3565b6103459190610d09565b61034f9190610d63565b905060006064601e610360306104e3565b61036a9190610d09565b6103749190610d63565b905060008054906101000a900473ffffffffffffffffffffffffffffffffffffffff1673ffffffffffffffffffffffffffffffffffffffff1663a9059cbb84846040518363ffffffff1660e01b81526004016103d1929190610db5565b6020604051808303816000875af11580156103f0573d6000803e3d6000fd5b505050506040513d601f19601f820116820180604052508101906104149190610e16565b5060008054906101000a900473ffffffffffffffffffffffffffffffffffffffff1673ffffffffffffffffffffffffffffffffffffffff1663a9059cbb600260009054906101000a900473ffffffffffffffffffffffffffffffffffffffff16836040518363ffffffff1660e01b8152600401610492929190610e43565b6020604051808303816000875af11580156104b1573d6000803e3d6000fd5b505050506040513d601f19601f820116820180604052508101906104d59190610e16565b506104de610836565b505050565b60008060009054906101000a900473ffffffffffffffffffffffffffffffffffffffff1673ffffffffffffffffffffffffffffffffffffffff166370a08231836040518263ffffffff1660e01b815260040161053f9190610a12565b602060405180830381865afa15801561055c573d6000803e3d6000fd5b505050506040513d601f19601f820116820180604052508101906105809190610e81565b9050919050565b600260009054906101000a900473ffffffffffffffffffffffffffffffffffffffff1681565b60003390506000309050600260009054906101000a900473ffffffffffffffffffffffffffffffffffffffff1673ffffffffffffffffffffffffffffffffffffffff168273ffffffffffffffffffffffffffffffffffffffff16141561061257600080fd5b60008311610655576040517f08c379a000000000000000000000000000000000000000000000000000000000815260040161064c90610efa565b60405180910390fd5b60008054906101000a900473ffffffffffffffffffffffffffffffffffffffff1673ffffffffffffffffffffffffffffffffffffffff166323b872dd8383866040518463ffffffff1660e01b81526004016106b293929190610f1a565b6020604051808303816000875af11580156106d1573d6000803e3d6000fd5b505050506040513d601f19601f820116820180604052508101906106f59190610e16565b506001829080600181540180825580915050600190039060005260206000200160009091909190916101000a81548173ffffffffffffffffffffffffffffffffffffffff021916908373ffffffffffffffffffffffffffffffffffffffff1602179055507fddf252ad1be2c89b69c2b068fc378daa952ba7f163c4a11628f55a4df523b3ef82828560405161078c93929190610f1a565b60405180910390a1505050565b600181815481106107a957600080fd5b906000526020600020016000915054906101000a900473ffffffffffffffffffffffffffffffffffffffff1681565b60008054906101000a900473ffffffffffffffffffffffffffffffffffffffff1681565b6000444260018054905060405160200161081893929190610f72565b6040516020818303038152906040528051906020012060001c905090565b600067ffffffffffffffff81111561085157610850610faf565b5b60405190808252806020026020018201604052801561087f5781602001602082028036833780820191505090505b5060019080519060200190610895929190610898565b50565b828054828255906000526020600020908101928215610911579160200282015b828111156109105782518260006101000a81548173ffffffffffffffffffffffffffffffffffffffff021916908373ffffffffffffffffffffffffffffffffffffffff160217905550916020019190600101906108b8565b5b50905061091e9190610922565b5090565b5b8082111561093b576000816000905550600101610923565b5090565b6000819050919050565b6109528161093f565b82525050565b600060208201905061096d6000830184610949565b92915050565b600080fd5b600073ffffffffffffffffffffffffffffffffffffffff82169050919050565b60006109a382610978565b9050919050565b6109b381610998565b81146109be57600080fd5b50565b6000813590506109d0816109aa565b92915050565b6000602082840312156109ec576109eb610973565b5b60006109fa848285016109c1565b91505092915050565b610a0c81610998565b82525050565b6000602082019050610a276000830184610a03565b92915050565b610a368161093f565b8114610a4157600080fd5b50565b600081359050610a5381610a2d565b92915050565b600060208284031215610a6f57610a6e610973565b5b6000610a7d84828501610a44565b91505092915050565b6000610a9182610978565b9050919050565b610aa181610a86565b82525050565b6000602082019050610abc6000830184610a98565b92915050565b6000819050919050565b6000610ae7610ae2610add84610978565b610ac2565b610978565b9050919050565b6000610af982610acc565b9050919050565b6000610b0b82610aee565b9050919050565b610b1b81610b00565b82525050565b6000602082019050610b366000830184610b12565b92915050565b600082825260208201905092915050565b7f596f7520617265206e6f7420746865206f776e65720000000000000000000000600082015250565b6000610b83601583610b3c565b9150610b8e82610b4d565b602082019050919050565b60006020820190508181036000830152610bb281610b76565b9050919050565b7f4e6f7420656e6f75676820706c617965727320696e20746865206c6f7474657260008201527f7900000000000000000000000000000000000000000000000000000000000000602082015250565b6000610c15602183610b3c565b9150610c2082610bb9565b604082019050919050565b60006020820190508181036000830152610c4481610c08565b9050919050565b7f4e487b7100000000000000000000000000000000000000000000000000000000600052601260045260246000fd5b6000610c858261093f565b9150610c908361093f565b925082610ca057610c9f610c4b565b5b828206905092915050565b7f4e487b7100000000000000000000000000000000000000000000000000000000600052603260045260246000fd5b7f4e487b7100000000000000000000000000000000000000000000000000000000600052601160045260246000fd5b6000610d148261093f565b9150610d1f8361093f565b9250817fffffffffffffffffffffffffffffffffffffffffffffffffffffffffffffffff0483118215151615610d5857610d57610cda565b5b828202905092915050565b6000610d6e8261093f565b9150610d798361093f565b925082610d8957610d88610c4b565b5b828204905092915050565b6000610d9f82610aee565b9050919050565b610daf81610d94565b82525050565b6000604082019050610dca6000830185610da6565b610dd76020830184610949565b9392505050565b60008115159050919050565b610df381610dde565b8114610dfe57600080fd5b50565b600081519050610e1081610dea565b92915050565b600060208284031215610e2c57610e2b610973565b5b6000610e3a84828501610e01565b91505092915050565b6000604082019050610e586000830185610a03565b610e656020830184610949565b9392505050565b600081519050610e7b81610a2d565b92915050565b600060208284031215610e9757610e96610973565b5b6000610ea584828501610e6c565b91505092915050565b7f4265742061746c65617374203120746f6b656e00000000000000000000000000600082015250565b6000610ee4601383610b3c565b9150610eef82610eae565b602082019050919050565b60006020820190508181036000830152610f1381610ed7565b9050919050565b6000606082019050610f2f6000830186610a03565b610f3c6020830185610a03565b610f496040830184610949565b949350505050565b6000819050919050565b610f6c610f678261093f565b610f51565b82525050565b6000610f7e8286610f5b565b602082019150610f8e8285610f5b565b602082019150610f9e8284610f5b565b602082019150819050949350505050565b7f4e487b7100000000000000000000000000000000000000000000000000000000600052604160045260246000fdfea26469706673582212205fe179ae05c97814b171d200e3d2a4bcb65de896634ab175461ba3359e33f8cc64736f6c634300080b0033",
  "immutableReferences": {},
  "source": "pragma solidity ^0.8.0;\r\n\r\nimport \"./token.sol\";\r\n\r\ncontract Lottery {\r\n\r\n  IERC20 public token;\r\n\r\n  event Transfer(address _from, address _destAddr, uint _amount);\r\n\r\n  // List of players registered in lottery\r\n  address payable[] public players;\r\n  address public owner;\r\n\r\n  constructor(IERC20 _token) public {\r\n    token = _token;\r\n    owner = msg.sender;\r\n  }\r\n\r\n  modifier onlyOwner() {\r\n    require(owner == msg.sender, \"You are not the owner\");\r\n    _;\r\n  }\r\n\r\n  function acceptToken(uint amount) external {\r\n\r\n    address from = msg.sender;\r\n    address to = address(this);\r\n\r\n    // makes sure that the owner cannot participate in Lottery\r\n    require(from != owner);\r\n    require(amount > 0, \"Bet atleast 1 token\");\r\n\r\n    // transfer token from player to contract\r\n    token.transferFrom(from, to, amount);\r\n\r\n    // pushing the account conducting the transaction onto the players array as a payable address\r\n    players.push(payable(from));\r\n\r\n    emit Transfer(from, to, amount);\r\n  }\r\n\r\n  function getTokenBalanceOf(address addr) public view returns (uint) {\r\n    return token.balanceOf(addr);\r\n  }\r\n\r\n  function getBalance() public view onlyOwner returns(uint) {\r\n    // returns the contract balance\r\n    return address(this).balance;\r\n  }\r\n\r\n  function random() internal view returns(uint) {\r\n    return uint(keccak256(abi.encodePacked(block.difficulty, block.timestamp, players.length)));\r\n  }\r\n\r\n  function pickWinner() public onlyOwner {\r\n    // makes sure that we have enough players in the lottery\r\n    require(players.length >= 3, \"Not enough players in the lottery\");\r\n\r\n    address payable winner;\r\n\r\n    // selects the winner with the random number\r\n    winner = players[random() % players.length];\r\n    uint prize = (getTokenBalanceOf(address(this)) * 70) / 100;\r\n    uint burn_token = (getTokenBalanceOf(address(this)) * 30) / 100;\r\n\r\n    // transfers balance to winner => 70% of lottery pool\r\n    token.transfer(winner, prize);\r\n\r\n    // burn the rest of the pool => 30% of lottery pool\r\n    token.transfer(owner, burn_token);\r\n\r\n    // resets the players array once someone is picked\r\n    resetLottery();\r\n  }\r\n\r\n  function resetLottery() internal {\r\n    players = new address payable[](0);\r\n  }\r\n\r\n}\r\n",
  "sourcePath": "C:\\Users\\lloyd.montero\\Documents\\blckchn\\lottery\\practice_apps\\lottery-v1\\contracts\\Lottery.sol",
  "compiler": {
    "name": "solc",
    "version": "0.8.11+commit.d7f03943.Emscripten.clang"
  },
  "schemaVersion": "3.4.3",
  "updatedAt": "2022-01-03T07:00:34.930Z",
  "devdoc": {
    "kind": "dev",
    "methods": {},
    "version": 1
  },
  "userdoc": {
    "kind": "user",
    "methods": {},
    "version": 1
  }
}