{
  "contractName": "Lottery",
  "abi": [
    {
      "inputs": [
        {
          "internalType": "contract IERC20",
          "name": "_token",
          "type": "address"
        }
      ],
      "stateMutability": "nonpayable",
      "type": "constructor"
    },
    {
      "anonymous": false,
      "inputs": [
        {
          "indexed": false,
          "internalType": "address",
          "name": "_from",
          "type": "address"
        },
        {
          "indexed": false,
          "internalType": "address",
          "name": "_destAddr",
          "type": "address"
        },
        {
          "indexed": false,
          "internalType": "uint256",
          "name": "_amount",
          "type": "uint256"
        }
      ],
      "name": "Transfer",
      "type": "event"
    },
    {
      "inputs": [],
      "name": "owner",
      "outputs": [
        {
          "internalType": "address",
          "name": "",
          "type": "address"
        }
      ],
      "stateMutability": "view",
      "type": "function",
      "constant": true
    },
    {
      "inputs": [
        {
          "internalType": "uint256",
          "name": "",
          "type": "uint256"
        }
      ],
      "name": "players",
      "outputs": [
        {
          "internalType": "address payable",
          "name": "",
          "type": "address"
        }
      ],
      "stateMutability": "view",
      "type": "function",
      "constant": true
    },
    {
      "inputs": [],
      "name": "token",
      "outputs": [
        {
          "internalType": "contract IERC20",
          "name": "",
          "type": "address"
        }
      ],
      "stateMutability": "view",
      "type": "function",
      "constant": true
    },
    {
      "inputs": [
        {
          "internalType": "address",
          "name": "from",
          "type": "address"
        },
        {
          "internalType": "uint256",
          "name": "amount",
          "type": "uint256"
        }
      ],
      "name": "acceptToken",
      "outputs": [],
      "stateMutability": "nonpayable",
      "type": "function"
    },
    {
      "inputs": [
        {
          "internalType": "address",
          "name": "addr",
          "type": "address"
        }
      ],
      "name": "getTokenBalanceOf",
      "outputs": [
        {
          "internalType": "uint256",
          "name": "",
          "type": "uint256"
        }
      ],
      "stateMutability": "view",
      "type": "function",
      "constant": true
    },
    {
      "inputs": [],
      "name": "getBalance",
      "outputs": [
        {
          "internalType": "uint256",
          "name": "",
          "type": "uint256"
        }
      ],
      "stateMutability": "view",
      "type": "function",
      "constant": true
    },
    {
      "inputs": [],
      "name": "pickWinner",
      "outputs": [],
      "stateMutability": "nonpayable",
      "type": "function"
    }
  ],
  "bytecode": "0x60806040523480156200001157600080fd5b50604051620011963803806200119683398181016040528101906200003791906200013d565b806000806101000a81548173ffffffffffffffffffffffffffffffffffffffff021916908373ffffffffffffffffffffffffffffffffffffffff16021790555033600260006101000a81548173ffffffffffffffffffffffffffffffffffffffff021916908373ffffffffffffffffffffffffffffffffffffffff160217905550506200016f565b600080fd5b600073ffffffffffffffffffffffffffffffffffffffff82169050919050565b6000620000f182620000c4565b9050919050565b60006200010582620000e4565b9050919050565b6200011781620000f8565b81146200012357600080fd5b50565b60008151905062000137816200010c565b92915050565b600060208284031215620001565762000155620000bf565b5b6000620001668482850162000126565b91505092915050565b611017806200017f6000396000f3fe608060405234801561001057600080fd5b506004361061007d5760003560e01c8063838945481161005b57806383894548146100c65780638da5cb5b146100f6578063f71d96cb14610114578063fc0c546a146101445761007d565b806312065fe0146100825780631483f917146100a05780635d495aea146100bc575b600080fd5b61008a610162565b604051610097919061091b565b60405180910390f35b6100ba60048036038101906100b591906109c5565b6101fa565b005b6100c46103a9565b005b6100e060048036038101906100db9190610a05565b610692565b6040516100ed919061091b565b60405180910390f35b6100fe610736565b60405161010b9190610a41565b60405180910390f35b61012e60048036038101906101299190610a5c565b61075c565b60405161013b9190610aaa565b60405180910390f35b61014c61079b565b6040516101599190610b24565b60405180910390f35b60003373ffffffffffffffffffffffffffffffffffffffff16600260009054906101000a900473ffffffffffffffffffffffffffffffffffffffff1673ffffffffffffffffffffffffffffffffffffffff16146101f4576040517f08c379a00000000000000000000000000000000000000000000000000000000081526004016101eb90610b9c565b60405180910390fd5b47905090565b3391506000309050600260009054906101000a900473ffffffffffffffffffffffffffffffffffffffff1673ffffffffffffffffffffffffffffffffffffffff163373ffffffffffffffffffffffffffffffffffffffff16141561025d57600080fd5b600082116102a0576040517f08c379a000000000000000000000000000000000000000000000000000000000815260040161029790610c08565b60405180910390fd5b60008054906101000a900473ffffffffffffffffffffffffffffffffffffffff1673ffffffffffffffffffffffffffffffffffffffff166323b872dd8483856040518463ffffffff1660e01b81526004016102fd93929190610c28565b6020604051808303816000875af115801561031c573d6000803e3d6000fd5b505050506040513d601f19601f820116820180604052508101906103409190610c97565b506001339080600181540180825580915050600190039060005260206000200160009091909190916101000a81548173ffffffffffffffffffffffffffffffffffffffff021916908373ffffffffffffffffffffffffffffffffffffffff160217905550505050565b3373ffffffffffffffffffffffffffffffffffffffff16600260009054906101000a900473ffffffffffffffffffffffffffffffffffffffff1673ffffffffffffffffffffffffffffffffffffffff1614610439576040517f08c379a000000000000000000000000000000000000000000000000000000000815260040161043090610b9c565b60405180910390fd5b60036001805490501015610482576040517f08c379a000000000000000000000000000000000000000000000000000000000815260040161047990610d36565b60405180910390fd5b6000600180805490506104936107bf565b61049d9190610d85565b815481106104ae576104ad610db6565b5b9060005260206000200160009054906101000a900473ffffffffffffffffffffffffffffffffffffffff1690506000606460466104ea30610692565b6104f49190610e14565b6104fe9190610e6e565b905060006064601e61050f30610692565b6105199190610e14565b6105239190610e6e565b905060008054906101000a900473ffffffffffffffffffffffffffffffffffffffff1673ffffffffffffffffffffffffffffffffffffffff1663a9059cbb84846040518363ffffffff1660e01b8152600401610580929190610ec0565b6020604051808303816000875af115801561059f573d6000803e3d6000fd5b505050506040513d601f19601f820116820180604052508101906105c39190610c97565b5060008054906101000a900473ffffffffffffffffffffffffffffffffffffffff1673ffffffffffffffffffffffffffffffffffffffff1663a9059cbb600260009054906101000a900473ffffffffffffffffffffffffffffffffffffffff16836040518363ffffffff1660e01b8152600401610641929190610ee9565b6020604051808303816000875af1158015610660573d6000803e3d6000fd5b505050506040513d601f19601f820116820180604052508101906106849190610c97565b5061068d6107f9565b505050565b60008060009054906101000a900473ffffffffffffffffffffffffffffffffffffffff1673ffffffffffffffffffffffffffffffffffffffff166370a08231836040518263ffffffff1660e01b81526004016106ee9190610a41565b602060405180830381865afa15801561070b573d6000803e3d6000fd5b505050506040513d601f19601f8201168201806040525081019061072f9190610f27565b9050919050565b600260009054906101000a900473ffffffffffffffffffffffffffffffffffffffff1681565b6001818154811061076c57600080fd5b906000526020600020016000915054906101000a900473ffffffffffffffffffffffffffffffffffffffff1681565b60008054906101000a900473ffffffffffffffffffffffffffffffffffffffff1681565b600044426001805490506040516020016107db93929190610f75565b6040516020818303038152906040528051906020012060001c905090565b600067ffffffffffffffff81111561081457610813610fb2565b5b6040519080825280602002602001820160405280156108425781602001602082028036833780820191505090505b506001908051906020019061085892919061085b565b50565b8280548282559060005260206000209081019282156108d4579160200282015b828111156108d35782518260006101000a81548173ffffffffffffffffffffffffffffffffffffffff021916908373ffffffffffffffffffffffffffffffffffffffff1602179055509160200191906001019061087b565b5b5090506108e191906108e5565b5090565b5b808211156108fe5760008160009055506001016108e6565b5090565b6000819050919050565b61091581610902565b82525050565b6000602082019050610930600083018461090c565b92915050565b600080fd5b600073ffffffffffffffffffffffffffffffffffffffff82169050919050565b60006109668261093b565b9050919050565b6109768161095b565b811461098157600080fd5b50565b6000813590506109938161096d565b92915050565b6109a281610902565b81146109ad57600080fd5b50565b6000813590506109bf81610999565b92915050565b600080604083850312156109dc576109db610936565b5b60006109ea85828601610984565b92505060206109fb858286016109b0565b9150509250929050565b600060208284031215610a1b57610a1a610936565b5b6000610a2984828501610984565b91505092915050565b610a3b8161095b565b82525050565b6000602082019050610a566000830184610a32565b92915050565b600060208284031215610a7257610a71610936565b5b6000610a80848285016109b0565b91505092915050565b6000610a948261093b565b9050919050565b610aa481610a89565b82525050565b6000602082019050610abf6000830184610a9b565b92915050565b6000819050919050565b6000610aea610ae5610ae08461093b565b610ac5565b61093b565b9050919050565b6000610afc82610acf565b9050919050565b6000610b0e82610af1565b9050919050565b610b1e81610b03565b82525050565b6000602082019050610b396000830184610b15565b92915050565b600082825260208201905092915050565b7f596f7520617265206e6f7420746865206f776e65720000000000000000000000600082015250565b6000610b86601583610b3f565b9150610b9182610b50565b602082019050919050565b60006020820190508181036000830152610bb581610b79565b9050919050565b7f4265742061746c65617374203120746f6b656e00000000000000000000000000600082015250565b6000610bf2601383610b3f565b9150610bfd82610bbc565b602082019050919050565b60006020820190508181036000830152610c2181610be5565b9050919050565b6000606082019050610c3d6000830186610a32565b610c4a6020830185610a32565b610c57604083018461090c565b949350505050565b60008115159050919050565b610c7481610c5f565b8114610c7f57600080fd5b50565b600081519050610c9181610c6b565b92915050565b600060208284031215610cad57610cac610936565b5b6000610cbb84828501610c82565b91505092915050565b7f4e6f7420656e6f75676820706c617965727320696e20746865206c6f7474657260008201527f7900000000000000000000000000000000000000000000000000000000000000602082015250565b6000610d20602183610b3f565b9150610d2b82610cc4565b604082019050919050565b60006020820190508181036000830152610d4f81610d13565b9050919050565b7f4e487b7100000000000000000000000000000000000000000000000000000000600052601260045260246000fd5b6000610d9082610902565b9150610d9b83610902565b925082610dab57610daa610d56565b5b828206905092915050565b7f4e487b7100000000000000000000000000000000000000000000000000000000600052603260045260246000fd5b7f4e487b7100000000000000000000000000000000000000000000000000000000600052601160045260246000fd5b6000610e1f82610902565b9150610e2a83610902565b9250817fffffffffffffffffffffffffffffffffffffffffffffffffffffffffffffffff0483118215151615610e6357610e62610de5565b5b828202905092915050565b6000610e7982610902565b9150610e8483610902565b925082610e9457610e93610d56565b5b828204905092915050565b6000610eaa82610af1565b9050919050565b610eba81610e9f565b82525050565b6000604082019050610ed56000830185610eb1565b610ee2602083018461090c565b9392505050565b6000604082019050610efe6000830185610a32565b610f0b602083018461090c565b9392505050565b600081519050610f2181610999565b92915050565b600060208284031215610f3d57610f3c610936565b5b6000610f4b84828501610f12565b91505092915050565b6000819050919050565b610f6f610f6a82610902565b610f54565b82525050565b6000610f818286610f5e565b602082019150610f918285610f5e565b602082019150610fa18284610f5e565b602082019150819050949350505050565b7f4e487b7100000000000000000000000000000000000000000000000000000000600052604160045260246000fdfea2646970667358221220776d5c2b3124d129417e59f2e1a1e64097a5e33d6d842ea2de04b0698a9e7c1d64736f6c634300080b0033",
  "immutableReferences": {},
  "source": "pragma solidity ^0.8.0;\r\n\r\nimport \"./token.sol\";\r\n\r\ncontract Lottery {\r\n\r\n  IERC20 public token;\r\n\r\n  event Transfer(address _from, address _destAddr, uint _amount);\r\n\r\n  // List of players registered in lottery\r\n  address payable[] public players;\r\n  address public owner;\r\n\r\n  constructor(IERC20 _token) public {\r\n    token = _token;\r\n    owner = msg.sender;\r\n  }\r\n\r\n  modifier onlyOwner() {\r\n    require(owner == msg.sender, \"You are not the owner\");\r\n    _;\r\n  }\r\n\r\n  function acceptToken(address from, uint amount) external {\r\n\r\n    from = msg.sender;\r\n    address to = address(this);\r\n\r\n    // makes sure that the owner cannot participate in Lottery\r\n    require(msg.sender != owner);\r\n    require(amount > 0, \"Bet atleast 1 token\");\r\n\r\n    // transfer token from player to contract\r\n    token.transferFrom(from, to, amount);\r\n\r\n    // pushing the account conducting the transaction onto the players array as a payable address\r\n    players.push(payable(msg.sender));\r\n\r\n    // emit Transfer(from, to, amount);\r\n  }\r\n\r\n  function getTokenBalanceOf(address addr) public view returns (uint) {\r\n    return token.balanceOf(addr);\r\n  }\r\n\r\n  function getBalance() public view onlyOwner returns(uint) {\r\n    // returns the contract balance\r\n    return address(this).balance;\r\n  }\r\n\r\n  function random() internal view returns(uint) {\r\n    return uint(keccak256(abi.encodePacked(block.difficulty, block.timestamp, players.length)));\r\n  }\r\n\r\n  function pickWinner() public onlyOwner {\r\n    // makes sure that we have enough players in the lottery\r\n    require(players.length >= 3, \"Not enough players in the lottery\");\r\n\r\n    address payable winner;\r\n\r\n    // selects the winner with the random number\r\n    winner = players[random() % players.length];\r\n    uint prize = (getTokenBalanceOf(address(this)) * 70) / 100;\r\n    uint burn_token = (getTokenBalanceOf(address(this)) * 30) / 100;\r\n\r\n    // transfers balance to winner => 70% of lottery pool\r\n    token.transfer(winner, prize);\r\n\r\n    // burn the rest of the pool => 30% of lottery pool\r\n    token.transfer(owner, burn_token);\r\n\r\n    // resets the players array once someone is picked\r\n    resetLottery();\r\n  }\r\n\r\n  function resetLottery() internal {\r\n    players = new address payable[](0);\r\n  }\r\n\r\n}\r\n",
  "sourcePath": "C:\\Users\\lloyd.montero\\Documents\\blckchn\\lottery\\practice_apps\\lottery-v1\\contracts\\Lottery.sol",
  "compiler": {
    "name": "solc",
    "version": "0.8.11+commit.d7f03943.Emscripten.clang"
  },
  "schemaVersion": "3.4.3",
  "updatedAt": "2022-01-02T12:52:17.873Z",
  "networkType": "ethereum",
  "devdoc": {
    "kind": "dev",
    "methods": {},
    "version": 1
  },
  "userdoc": {
    "kind": "user",
    "methods": {},
    "version": 1
  }
}